{
  "_format": "hh-sol-artifact-1",
  "contractName": "whiteList",
  "sourceName": "contracts/whiteList.sol",
  "abi": [
    {
      "inputs": [
        {
          "internalType": "uint8",
          "name": "_maxWhiteListedAddresses",
          "type": "uint8"
        }
      ],
      "stateMutability": "nonpayable",
      "type": "constructor"
    },
    {
      "inputs": [],
      "name": "addToWhiteList",
      "outputs": [],
      "stateMutability": "nonpayable",
      "type": "function"
    },
    {
      "inputs": [],
      "name": "maxWhiteListAddresses",
      "outputs": [
        {
          "internalType": "uint8",
          "name": "",
          "type": "uint8"
        }
      ],
      "stateMutability": "view",
      "type": "function"
    },
    {
      "inputs": [],
      "name": "numWhiteListedAddress",
      "outputs": [
        {
          "internalType": "uint8",
          "name": "",
          "type": "uint8"
        }
      ],
      "stateMutability": "view",
      "type": "function"
    },
    {
      "inputs": [
        {
          "internalType": "address",
          "name": "",
          "type": "address"
        }
      ],
      "name": "whiteListedAddresses",
      "outputs": [
        {
          "internalType": "bool",
          "name": "",
          "type": "bool"
        }
      ],
      "stateMutability": "view",
      "type": "function"
    }
  ],
  "bytecode": "0x608060405234801561001057600080fd5b506040516105f43803806105f483398181016040528101906100329190610086565b60008054906101000a900460ff169050506100b3565b600080fd5b600060ff82169050919050565b6100638161004d565b811461006e57600080fd5b50565b6000815190506100808161005a565b92915050565b60006020828403121561009c5761009b610048565b5b60006100aa84828501610071565b91505092915050565b610532806100c26000396000f3fe608060405234801561001057600080fd5b506004361061004c5760003560e01c806338e159a614610051578063396d62641461006f578063c059cc731461008d578063d8e773a214610097575b600080fd5b6100596100c7565b60405161006691906102a8565b60405180910390f35b6100776100da565b60405161008491906102a8565b60405180910390f35b6100956100eb565b005b6100b160048036038101906100ac9190610326565b61026c565b6040516100be919061036e565b60405180910390f35b600260009054906101000a900460ff1681565b60008054906101000a900460ff1681565b600160003373ffffffffffffffffffffffffffffffffffffffff1673ffffffffffffffffffffffffffffffffffffffff16815260200190815260200160002060009054906101000a900460ff1615610178576040517f08c379a000000000000000000000000000000000000000000000000000000000815260040161016f9061040c565b60405180910390fd5b60008054906101000a900460ff1660ff16600260009054906101000a900460ff1660ff16106101dc576040517f08c379a00000000000000000000000000000000000000000000000000000000081526004016101d390610478565b60405180910390fd5b60018060003373ffffffffffffffffffffffffffffffffffffffff1673ffffffffffffffffffffffffffffffffffffffff16815260200190815260200160002060006101000a81548160ff0219169083151502179055506001600260008282829054906101000a900460ff1661025291906104c7565b92506101000a81548160ff021916908360ff160217905550565b60016020528060005260406000206000915054906101000a900460ff1681565b600060ff82169050919050565b6102a28161028c565b82525050565b60006020820190506102bd6000830184610299565b92915050565b600080fd5b600073ffffffffffffffffffffffffffffffffffffffff82169050919050565b60006102f3826102c8565b9050919050565b610303816102e8565b811461030e57600080fd5b50565b600081359050610320816102fa565b92915050565b60006020828403121561033c5761033b6102c3565b5b600061034a84828501610311565b91505092915050565b60008115159050919050565b61036881610353565b82525050565b6000602082019050610383600083018461035f565b92915050565b600082825260208201905092915050565b7f53656e6465722068617320616c7265616479206265656e207768697465206c6960008201527f7374656421000000000000000000000000000000000000000000000000000000602082015250565b60006103f6602583610389565b91506104018261039a565b604082019050919050565b60006020820190508181036000830152610425816103e9565b9050919050565b7f4d6f7265206164647265737320636f756c64206e6f7420626520616464656421600082015250565b6000610462602083610389565b915061046d8261042c565b602082019050919050565b6000602082019050818103600083015261049181610455565b9050919050565b7f4e487b7100000000000000000000000000000000000000000000000000000000600052601160045260246000fd5b60006104d28261028c565b91506104dd8361028c565b9250828201905060ff8111156104f6576104f5610498565b5b9291505056fea2646970667358221220333c8426a9b6fb0f181653478212a2caa4590ef4978f61020da6c552abe8e6de64736f6c63430008120033",
  "linkReferences": {},
  "deployedLinkReferences": {}
}